{
  "contractName": "addressSet",
  "abi": [
    {
      "constant": false,
      "inputs": [
        {
          "name": "self",
          "type": "addressSet._addressSet storage"
        },
        {
          "name": "other",
          "type": "address"
        }
      ],
      "name": "insert",
      "outputs": [],
      "payable": false,
      "stateMutability": "nonpayable",
      "type": "function"
    },
    {
      "constant": false,
      "inputs": [
        {
          "name": "self",
          "type": "addressSet._addressSet storage"
        },
        {
          "name": "other",
          "type": "address"
        }
      ],
      "name": "remove",
      "outputs": [],
      "payable": false,
      "stateMutability": "nonpayable",
      "type": "function"
    },
    {
      "constant": true,
      "inputs": [
        {
          "name": "self",
          "type": "addressSet._addressSet storage"
        },
        {
          "name": "other",
          "type": "address"
        }
      ],
      "name": "contains",
      "outputs": [
        {
          "name": "",
          "type": "bool"
        }
      ],
      "payable": false,
      "stateMutability": "view",
      "type": "function"
    },
    {
      "constant": true,
      "inputs": [
        {
          "name": "self",
          "type": "addressSet._addressSet storage"
        }
      ],
      "name": "length",
      "outputs": [
        {
          "name": "",
          "type": "uint256"
        }
      ],
      "payable": false,
      "stateMutability": "view",
      "type": "function"
    }
  ],
  "bytecode": "0x610319610030600b82828239805160001a6073146000811461002057610022565bfe5b5030600052607381538281f30073000000000000000000000000000000000000000030146080604052600436106100785763ffffffff7c010000000000000000000000000000000000000000000000000000000060003504166343cf70d7811461007d578063b65fd2941461009a578063e843cfc1146100c0578063ee8a71a0146100e4575b600080fd5b61008860043561010f565b60408051918252519081900360200190f35b8180156100a657600080fd5b506100be600435600160a060020a0360243516610113565b005b8180156100cc57600080fd5b506100be600435600160a060020a03602435166101ff565b6100fb600435600160a060020a0360243516610283565b604080519115158252519081900360200190f35b5490565b6000806101208484610283565b156101f957600160a060020a038316600090815260018086016020526040909120549250849061014f8261010f565b0381548110151561015c57fe5b6000918252602090912001548454600160a060020a03909116915081908590600019850190811061018957fe5b6000918252602090912001805473ffffffffffffffffffffffffffffffffffffffff1916600160a060020a039290921691909117905583546101cf8560001983016102a3565b50600160a060020a0380821660009081526001860160205260408082208590559185168152908120555b50505050565b6102098282610283565b151561027f5760001961021b8361010f565b1061022257fe5b815460018101835560008381526020902001805473ffffffffffffffffffffffffffffffffffffffff1916600160a060020a0383161790556102638261010f565b600160a060020a03821660009081526001840160205260409020555b5050565b600160a060020a0316600090815260019190910160205260408120541190565b8154818355818111156102c7576000838152602090206102c79181019083016102cc565b505050565b6102ea91905b808211156102e657600081556001016102d2565b5090565b905600a165627a7a723058204301d6c24e062110a01f21b9e3be4ad3e3569c0e603a92722dcaf5da05cc7fd10029",
  "source": "pragma solidity ^0.4.23;\n\n\nlibrary addressSet {\n    struct _addressSet {\n        address[] members;\n        mapping(address => uint) memberIndices;\n    }\n\n    function insert(_addressSet storage self, address other) public {\n        if (!contains(self, other)) {\n            assert(length(self) < 2**256-1);\n            self.members.push(other);\n            self.memberIndices[other] = length(self);\n        }\n    }\n\n    function remove(_addressSet storage self, address other) public {\n        if (contains(self, other)) {\n            uint replaceIndex = self.memberIndices[other];\n            address lastMember = self.members[length(self)-1];\n            // overwrite other with the last member and remove last member\n            self.members[replaceIndex-1] = lastMember;\n            self.members.length--;\n            // reflect this change in the indices\n            self.memberIndices[lastMember] = replaceIndex;\n            delete self.memberIndices[other];\n        }\n    }\n\n    function contains(_addressSet storage self, address other) public view returns (bool) {\n        return self.memberIndices[other] > 0;\n    }\n\n    function length(_addressSet storage self) public view returns (uint) {\n        return self.members.length;\n    }\n}",
  "sourcePath": "/Users/noahzinsmeister/Documents/github/smart-contracts/snowflake/contracts/libraries/addressSet.sol",
  "compiler": {
    "name": "solc",
    "version": "0.4.24+commit.e67f0147.Emscripten.clang"
  },
  "schemaVersion": "2.0.1",
  "updatedAt": "2018-08-21T17:36:39.721Z"
}